:100000000C9434000C9449000C9449000C94490061
:100010000C9449000C9449000C9449000C9449003C
:100020000C9449000C9449000C9449000C9449002C
:100030000C9449000C9449000C9449000C9449001C
:100040000C9449000C9449000C9449000C9449000C
:100050000C9449000C9449000C9449000C944900FC
:100060000C9449000C94490011241FBECFEFD8E036
:10007000DEBFCDBF11E0A0E0B1E0ECEBF1E002C0EB
:1000800005900D92A031B107D9F70E94BD000C94E4
:10009000DC000C94000085E58BB92FEF83ED90E335
:1000A000215080409040E1F700C000008AEA8BB9FF
:1000B0002FEF83ED90E3215080409040E1F700C0A6
:1000C000000008950F931F93CF93DF93CDB7DEB752
:1000D00060970FB6F894DEBF0FBECDBF1BB820E10E
:1000E000E0E0F1E0CE010196DC0101900D922A954D
:1000F000E1F7AC01FE017196DC0161E070E02BB12B
:100100008C9112968B0102C0000F111F8A95E2F7A5
:10011000C801822B8BB91FEF21EE84E011502040E3
:100120008040E1F700C00000AE17BF0741F761E073
:1001300070E09BB132979B01008002C0220F331FF9
:100140000A94E2F7822F809589238BB99FEF01EE05
:1001500014E0915000401040E1F700C00000E417A7
:10016000F50739F760960FB6F894DEBF0FBECDBF26
:10017000DF91CF911F910F9108958FEF8AB91BB82E
:1001800014B8189A189B0CC00E9462002FEF81EEE1
:1001900094E0215080409040E1F700C00000F2CF91
:1001A0000E944B002FEF81EE94E021508040904060
:0C01B000E1F700C00000E6CFF894FFCF9C
:1001BC000000010002000300040005000600070017
:00000001FF
